{
  "_format": "hh-sol-artifact-1",
  "contractName": "SimpleStorage",
  "sourceName": "contracts/SimpleStorage.sol",
  "abi": [
    {
      "inputs": [],
      "name": "add",
      "outputs": [
        {
          "internalType": "uint256",
          "name": "",
          "type": "uint256"
        }
      ],
      "stateMutability": "pure",
      "type": "function"
    },
    {
      "inputs": [
        {
          "internalType": "uint256",
          "name": "_favoriteNumber",
          "type": "uint256"
        },
        {
          "internalType": "string",
          "name": "_name",
          "type": "string"
        }
      ],
      "name": "addArrayData",
      "outputs": [],
      "stateMutability": "nonpayable",
      "type": "function"
    },
    {
      "inputs": [],
      "name": "favoriteNumber",
      "outputs": [
        {
          "internalType": "uint256",
          "name": "",
          "type": "uint256"
        }
      ],
      "stateMutability": "view",
      "type": "function"
    },
    {
      "inputs": [
        {
          "internalType": "string",
          "name": "",
          "type": "string"
        }
      ],
      "name": "nameToFavoriteNumber",
      "outputs": [
        {
          "internalType": "uint256",
          "name": "",
          "type": "uint256"
        }
      ],
      "stateMutability": "view",
      "type": "function"
    },
    {
      "inputs": [
        {
          "internalType": "uint256",
          "name": "",
          "type": "uint256"
        }
      ],
      "name": "people",
      "outputs": [
        {
          "internalType": "uint256",
          "name": "favoriteNumber",
          "type": "uint256"
        },
        {
          "internalType": "string",
          "name": "name",
          "type": "string"
        }
      ],
      "stateMutability": "view",
      "type": "function"
    },
    {
      "inputs": [],
      "name": "retrieve",
      "outputs": [
        {
          "internalType": "uint256",
          "name": "",
          "type": "uint256"
        }
      ],
      "stateMutability": "view",
      "type": "function"
    },
    {
      "inputs": [
        {
          "internalType": "uint256",
          "name": "_favoriteNumber",
          "type": "uint256"
        }
      ],
      "name": "store",
      "outputs": [],
      "stateMutability": "nonpayable",
      "type": "function"
    }
  ],
  "bytecode": "0x608060405234801561001057600080fd5b506109ac806100206000396000f3fe608060405234801561001057600080fd5b506004361061007d5760003560e01c80636057361d1161005b5780636057361d146100dc5780638bab8dd5146100f85780639e7a13ad14610128578063f5eb974f146101595761007d565b80632e64cec114610082578063471f7cdf146100a05780634f2be91f146100be575b600080fd5b61008a610175565b6040516100979190610323565b60405180910390f35b6100a861017e565b6040516100b59190610323565b60405180910390f35b6100c6610184565b6040516100d39190610323565b60405180910390f35b6100f660048036038101906100f1919061037e565b61018d565b005b610112600480360381019061010d91906104f1565b610197565b60405161011f9190610323565b60405180910390f35b610142600480360381019061013d919061037e565b6101c5565b6040516101509291906105b9565b60405180910390f35b610173600480360381019061016e91906105e9565b610281565b005b60008054905090565b60005481565b60006002905090565b8060008190555050565b6001818051602081018201805184825260208301602085012081835280955050505050506000915090505481565b600281815481106101d557600080fd5b90600052602060002090600202016000915090508060000154908060010180546101fe90610674565b80601f016020809104026020016040519081016040528092919081815260200182805461022a90610674565b80156102775780601f1061024c57610100808354040283529160200191610277565b820191906000526020600020905b81548152906001019060200180831161025a57829003601f168201915b5050505050905082565b600260405180604001604052808481526020018381525090806001815401808255809150506001900390600052602060002090600202016000909190919091506000820151816000015560208201518160010190816102e09190610851565b505050816001826040516102f4919061095f565b9081526020016040518091039020819055505050565b6000819050919050565b61031d8161030a565b82525050565b60006020820190506103386000830184610314565b92915050565b6000604051905090565b600080fd5b600080fd5b61035b8161030a565b811461036657600080fd5b50565b60008135905061037881610352565b92915050565b60006020828403121561039457610393610348565b5b60006103a284828501610369565b91505092915050565b600080fd5b600080fd5b6000601f19601f8301169050919050565b7f4e487b7100000000000000000000000000000000000000000000000000000000600052604160045260246000fd5b6103fe826103b5565b810181811067ffffffffffffffff8211171561041d5761041c6103c6565b5b80604052505050565b600061043061033e565b905061043c82826103f5565b919050565b600067ffffffffffffffff82111561045c5761045b6103c6565b5b610465826103b5565b9050602081019050919050565b82818337600083830152505050565b600061049461048f84610441565b610426565b9050828152602081018484840111156104b0576104af6103b0565b5b6104bb848285610472565b509392505050565b600082601f8301126104d8576104d76103ab565b5b81356104e8848260208601610481565b91505092915050565b60006020828403121561050757610506610348565b5b600082013567ffffffffffffffff8111156105255761052461034d565b5b610531848285016104c3565b91505092915050565b600081519050919050565b600082825260208201905092915050565b60005b83811015610574578082015181840152602081019050610559565b60008484015250505050565b600061058b8261053a565b6105958185610545565b93506105a5818560208601610556565b6105ae816103b5565b840191505092915050565b60006040820190506105ce6000830185610314565b81810360208301526105e08184610580565b90509392505050565b60008060408385031215610600576105ff610348565b5b600061060e85828601610369565b925050602083013567ffffffffffffffff81111561062f5761062e61034d565b5b61063b858286016104c3565b9150509250929050565b7f4e487b7100000000000000000000000000000000000000000000000000000000600052602260045260246000fd5b6000600282049050600182168061068c57607f821691505b60208210810361069f5761069e610645565b5b50919050565b60008190508160005260206000209050919050565b60006020601f8301049050919050565b600082821b905092915050565b6000600883026107077fffffffffffffffffffffffffffffffffffffffffffffffffffffffffffffffff826106ca565b61071186836106ca565b95508019841693508086168417925050509392505050565b6000819050919050565b600061074e6107496107448461030a565b610729565b61030a565b9050919050565b6000819050919050565b61076883610733565b61077c61077482610755565b8484546106d7565b825550505050565b600090565b610791610784565b61079c81848461075f565b505050565b5b818110156107c0576107b5600082610789565b6001810190506107a2565b5050565b601f821115610805576107d6816106a5565b6107df846106ba565b810160208510156107ee578190505b6108026107fa856106ba565b8301826107a1565b50505b505050565b600082821c905092915050565b60006108286000198460080261080a565b1980831691505092915050565b60006108418383610817565b9150826002028217905092915050565b61085a8261053a565b67ffffffffffffffff811115610873576108726103c6565b5b61087d8254610674565b6108888282856107c4565b600060209050601f8311600181146108bb57600084156108a9578287015190505b6108b38582610835565b86555061091b565b601f1984166108c9866106a5565b60005b828110156108f1578489015182556001820191506020850194506020810190506108cc565b8683101561090e578489015161090a601f891682610817565b8355505b6001600288020188555050505b505050505050565b600081905092915050565b60006109398261053a565b6109438185610923565b9350610953818560208601610556565b80840191505092915050565b600061096b828461092e565b91508190509291505056fea2646970667358221220fb66b8d90fe9d34ec25f1dd44515171e029741e6240abae2b68ea8378839d1d764736f6c63430008170033",
  "linkReferences": {},
  "deployedLinkReferences": {}
}