{
  "_format": "hh-sol-artifact-1",
  "contractName": "SimpleStorage",
  "sourceName": "contracts/SimpleStorage.sol",
  "abi": [
    {
      "inputs": [
        {
          "internalType": "uint256",
          "name": "_favoriteNumber",
          "type": "uint256"
        },
        {
          "internalType": "string",
          "name": "_name",
          "type": "string"
        }
      ],
      "name": "addArrayData",
      "outputs": [],
      "stateMutability": "nonpayable",
      "type": "function"
    },
    {
      "inputs": [],
      "name": "favoriteNumber",
      "outputs": [
        {
          "internalType": "uint256",
          "name": "",
          "type": "uint256"
        }
      ],
      "stateMutability": "view",
      "type": "function"
    },
    {
      "inputs": [
        {
          "internalType": "string",
          "name": "",
          "type": "string"
        }
      ],
      "name": "nameToFavoriteNumber",
      "outputs": [
        {
          "internalType": "uint256",
          "name": "",
          "type": "uint256"
        }
      ],
      "stateMutability": "view",
      "type": "function"
    },
    {
      "inputs": [
        {
          "internalType": "uint256",
          "name": "",
          "type": "uint256"
        }
      ],
      "name": "people",
      "outputs": [
        {
          "internalType": "uint256",
          "name": "favoriteNumber",
          "type": "uint256"
        },
        {
          "internalType": "string",
          "name": "name",
          "type": "string"
        }
      ],
      "stateMutability": "view",
      "type": "function"
    },
    {
      "inputs": [],
      "name": "retrieve",
      "outputs": [
        {
          "internalType": "uint256",
          "name": "",
          "type": "uint256"
        }
      ],
      "stateMutability": "view",
      "type": "function"
    },
    {
      "inputs": [
        {
          "internalType": "uint256",
          "name": "_favoriteNumber",
          "type": "uint256"
        }
      ],
      "name": "store",
      "outputs": [],
      "stateMutability": "nonpayable",
      "type": "function"
    }
  ],
  "bytecode": "0x608060405234801561001057600080fd5b50610a22806100206000396000f3fe608060405234801561001057600080fd5b50600436106100625760003560e01c80632e64cec114610067578063471f7cdf146100855780636057361d146100a35780638bab8dd5146100bf5780639e7a13ad146100ef578063f5eb974f14610120575b600080fd5b61006f61013c565b60405161007c9190610399565b60405180910390f35b61008d610182565b60405161009a9190610399565b60405180910390f35b6100bd60048036038101906100b891906103f4565b610188565b005b6100d960048036038101906100d49190610567565b6101ba565b6040516100e69190610399565b60405180910390f35b610109600480360381019061010491906103f4565b6101e8565b60405161011792919061062f565b60405180910390f35b61013a6004803603810190610135919061065f565b6102a4565b005b600061015267afde30bdb44b47fe60c01b61037d565b61016667ea08c1b373a8933060c01b61037d565b61017a6726a6a287afd58c5a60c01b61037d565b600054905090565b60005481565b61019c6796892a234696833360c01b61037d565b6101b0679cda3f8061c62f4c60c01b61037d565b8060008190555050565b6001818051602081018201805184825260208301602085012081835280955050505050506000915090505481565b600281815481106101f857600080fd5b9060005260206000209060020201600091509050806000015490806001018054610221906106ea565b80601f016020809104026020016040519081016040528092919081815260200182805461024d906106ea565b801561029a5780601f1061026f5761010080835404028352916020019161029a565b820191906000526020600020905b81548152906001019060200180831161027d57829003601f168201915b5050505050905082565b6102b867671086f32df8707360c01b61037d565b6102cc673e1a811ab17d308460c01b61037d565b6102e06770a2fc0b2d7099b360c01b61037d565b6002604051806040016040528084815260200183815250908060018154018082558091505060019003906000526020600020906002020160009091909190915060008201518160000155602082015181600101908161033f91906108c7565b50505061035667ad65ec9a08be620160c01b61037d565b8160018260405161036791906109d5565b9081526020016040518091039020819055505050565b50565b6000819050919050565b61039381610380565b82525050565b60006020820190506103ae600083018461038a565b92915050565b6000604051905090565b600080fd5b600080fd5b6103d181610380565b81146103dc57600080fd5b50565b6000813590506103ee816103c8565b92915050565b60006020828403121561040a576104096103be565b5b6000610418848285016103df565b91505092915050565b600080fd5b600080fd5b6000601f19601f8301169050919050565b7f4e487b7100000000000000000000000000000000000000000000000000000000600052604160045260246000fd5b6104748261042b565b810181811067ffffffffffffffff821117156104935761049261043c565b5b80604052505050565b60006104a66103b4565b90506104b2828261046b565b919050565b600067ffffffffffffffff8211156104d2576104d161043c565b5b6104db8261042b565b9050602081019050919050565b82818337600083830152505050565b600061050a610505846104b7565b61049c565b90508281526020810184848401111561052657610525610426565b5b6105318482856104e8565b509392505050565b600082601f83011261054e5761054d610421565b5b813561055e8482602086016104f7565b91505092915050565b60006020828403121561057d5761057c6103be565b5b600082013567ffffffffffffffff81111561059b5761059a6103c3565b5b6105a784828501610539565b91505092915050565b600081519050919050565b600082825260208201905092915050565b60005b838110156105ea5780820151818401526020810190506105cf565b60008484015250505050565b6000610601826105b0565b61060b81856105bb565b935061061b8185602086016105cc565b6106248161042b565b840191505092915050565b6000604082019050610644600083018561038a565b818103602083015261065681846105f6565b90509392505050565b60008060408385031215610676576106756103be565b5b6000610684858286016103df565b925050602083013567ffffffffffffffff8111156106a5576106a46103c3565b5b6106b185828601610539565b9150509250929050565b7f4e487b7100000000000000000000000000000000000000000000000000000000600052602260045260246000fd5b6000600282049050600182168061070257607f821691505b602082108103610715576107146106bb565b5b50919050565b60008190508160005260206000209050919050565b60006020601f8301049050919050565b600082821b905092915050565b60006008830261077d7fffffffffffffffffffffffffffffffffffffffffffffffffffffffffffffffff82610740565b6107878683610740565b95508019841693508086168417925050509392505050565b6000819050919050565b60006107c46107bf6107ba84610380565b61079f565b610380565b9050919050565b6000819050919050565b6107de836107a9565b6107f26107ea826107cb565b84845461074d565b825550505050565b600090565b6108076107fa565b6108128184846107d5565b505050565b5b818110156108365761082b6000826107ff565b600181019050610818565b5050565b601f82111561087b5761084c8161071b565b61085584610730565b81016020851015610864578190505b61087861087085610730565b830182610817565b50505b505050565b600082821c905092915050565b600061089e60001984600802610880565b1980831691505092915050565b60006108b7838361088d565b9150826002028217905092915050565b6108d0826105b0565b67ffffffffffffffff8111156108e9576108e861043c565b5b6108f382546106ea565b6108fe82828561083a565b600060209050601f831160018114610931576000841561091f578287015190505b61092985826108ab565b865550610991565b601f19841661093f8661071b565b60005b8281101561096757848901518255600182019150602085019450602081019050610942565b868310156109845784890151610980601f89168261088d565b8355505b6001600288020188555050505b505050505050565b600081905092915050565b60006109af826105b0565b6109b98185610999565b93506109c98185602086016105cc565b80840191505092915050565b60006109e182846109a4565b91508190509291505056fea26469706673582212202998cad00823d3a92836371cefcfdae6449927eb8c6c3371b434b301b2de8ba464736f6c63430008170033",
  "linkReferences": {},
  "deployedLinkReferences": {}
}